:100000000C945C000C9479000C9479000C947900A9
:100010000C9479000C9479000C9479000C9479007C
:100020000C9479000C9479000C9479000C9479006C
:100030000C9479000C9479000C9479000C9479005C
:100040000C94BE000C9479000C9479000C94790007
:100050000C9479000C9479000C9479000C9479003C
:100060000C9479000C947900000000002400270013
:100070002A0000000000250028002B0004040404CE
:100080000404040402020202020203030303030342
:10009000010204081020408001020408102001021F
:1000A00004081020000000070002010000030406FD
:1000B000000000000000000011241FBECFEFD8E0B8
:1000C000DEBFCDBF11E0A0E0B1E0EAE5F3E002C0A1
:1000D00005900D92A230B107D9F721E0A2E0B1E07E
:1000E00001C01D92AF30B207E1F70E9408010C94E5
:1000F000A8010C940000E8EAF0E08491E4E9F0E063
:100100009491E0E8F0E0E491EE23B9F1882339F12D
:10011000833091F038F48130A9F0823001F584B554
:100120008F7D12C0863091F08730A1F08430B9F411
:10013000809180008F7D03C0809180008F778093B5
:1001400080000DC084B58F7784BD09C08091B00058
:100150008F7703C08091B0008F7D8093B000F0E076
:10016000EE0FFF1FEE58FF4FA591B4912FB7F894F3
:100170008C91909598239C932FBF08951F920F9276
:100180000FB60F9211242F933F938F939F93AF93AA
:10019000BF938091070190910801A0910901B0914E
:1001A0000A013091060123E0230F2D3720F4019638
:1001B000A11DB11D05C026E8230F0296A11DB11D8A
:1001C000209306018093070190930801A0930901F1
:1001D000B0930A018091020190910301A091040162
:1001E000B09105010196A11DB11D8093020190936C
:1001F0000301A0930401B0930501BF91AF919F91BA
:100200008F913F912F910F900FBE0F901F901895D7
:10021000789484B5826084BD84B5816084BD85B5E1
:10022000826085BD85B5816085BD80916E008160ED
:1002300080936E0010928100809181008260809393
:100240008100809181008160809381008091800095
:100250008160809380008091B10084608093B100C0
:100260008091B00081608093B00080917A008460BA
:1002700080937A0080917A00826080937A008091E6
:100280007A00816080937A0080917A008068809300
:100290007A001092C100E4E9F0E02491E0E8F0E097
:1002A0008491882399F090E0880F991FFC01E85908
:1002B000FF4FA591B491FC01EE58FF4F85919491A9
:1002C0008FB7F894EC91E22BEC938FBFC0E0D0E0B5
:1002D00011E02FB7F8948091070190910801A09147
:1002E0000901B0910A012FBF40910B0150910C01FF
:1002F00060910D0170910E01841B950BA60BB70B3D
:10030000893B9B40A105B105E0F080910001882365
:1003100019F01092000102C0109300012FB7F89459
:100320008091070190910801A0910901B0910A0103
:100330002FBF80930B0190930C01A0930D01B093FC
:100340000E010E947B00209721F20E940000C1CF85
:0A035000F8940C94AB01F894FFCF71
:02035A000100A0
:00000001FF
