:100000000C9462000C948A000C948A000C948A0070
:100010000C948A000C948A000C948A000C948A0038
:100020000C948A000C948A000C948A000C948A0028
:100030000C948A000C948A000C948A000C948A0018
:100040000C9425030C948A000C94EB020C94B002DF
:100050000C948A000C948A000C948A000C948A00F8
:100060000C948A000C948A000000000024002700F1
:100070002A000000000023002600290000000000E4
:10008000250028002B0004040404040404040202D4
:100090000202020203030303030301020408102007
:1000A0004080010204081020010204081020000012
:1000B0000007000201000003040600000000000029
:1000C00000006F0311241FBECFEFD8E0DEBFCDBF0D
:1000D00011E0A0E0B1E0E8EEF9E002C005900D9279
:1000E000A231B107D9F721E0A2E1B1E001C01D9230
:1000F000AA3CB207E1F710E0C2E6D0E004C02197C5
:10010000FE010E94EC04C136D107C9F70E94AA0380
:100110000C94C7040C940000E091A801F091A9018F
:100120000190F081E02D682F88EA91E00994CF9347
:10013000DF938DE00E948C00EC018AE00E948C002D
:100140008C0F9D1FDF91CF9108950F931F93CF9335
:10015000DF93FC01A685B7858D01005C1F4FE80188
:100160008881998101968F739927AD014E5B5F4F0E
:10017000EA012881398182179307D1F3E8012881A8
:100180003981A20FB31F6C93A685B785A05CBF4FC2
:1001900011969C938E93A689B7892C9181E090E06B
:1001A000078C02C0880F991F0A94E2F7822B8C9368
:1001B00081E081A30488F589E02D808180648083BB
:1001C00081E090E0DF91CF911F910F910895FC01A4
:1001D00081A1882329F0A489B5898C9186FFFBCF62
:1001E00011A20895FC01A485B585FD01E05CFF4FD7
:1001F000208131813296808191812817390779F0E9
:1002000080819181A80FB91F8C91208131812F5F4E
:100210003F4F2F7333273183208390E008958FEF72
:100220009FEF0895DC011C96ED91FC911D97DF0175
:10023000A05CBF4F2D913C91119712968D919C918E
:1002400011972817390739F08D919C91E80FF91F04
:10025000808190E008958FEF9FEF0895FC01248541
:100260003585F901E05CFF4F8081918132962081D4
:100270003181821B930B8F739927089588EA91E04F
:100280000C942E010895CF92DF92EF92FF920F937C
:100290001F93CF93DF936C01EB017B01E40EF51EFE
:1002A00000E010E0CE15DF0561F06991D601ED9117
:1002B000FC910190F081E02DC6010995080F191FEE
:1002C000F1CFC801DF91CF911F910F91FF90EF9077
:1002D000DF90CF900895833081F028F4813099F039
:1002E0008230A1F008958630A9F08730B9F08430CB
:1002F000D1F4809180008F7D03C0809180008F7742
:1003000080938000089584B58F7702C084B58F7D77
:1003100084BD08958091B0008F7703C08091B000B4
:100320008F7D8093B00008951F93CF93DF93E2EB0E
:10033000F0E09491EEE9F0E0D491EAE8F0E0C491C5
:10034000CC23D9F0182F992319F0892F0E946B0123
:10035000EC2FF0E0EE0FFF1FE458FF4FA591B49192
:100360008FB7F894111105C09C91ED2FE095E9230A
:1003700002C0EC91ED2BEC938FBFDF91CF911F91D9
:100380000895CF93DF93282F30E0F901E255FF4F16
:100390008491F901E656FF4FD491F901EA57FF4FD6
:1003A000C491CC2391F081110E946B01EC2FF0E0FD
:1003B000EE0FFF1FEE58FF4FA591B491EC91ED2386
:1003C00081E090E021F480E002C080E090E0DF91E5
:1003D000CF910895CF93DF9390E0FC01E656FF4F55
:1003E0002491FC01EA57FF4F8491882361F190E04A
:1003F000880F991FFC01E859FF4FC591D491FC016A
:10040000E458FF4FA591B491611109C09FB7F894CA
:100410008881209582238883EC912E230BC0623043
:1004200061F49FB7F8943881822F80958323888365
:10043000EC912E2B2C939FBF06C08FB7F894E881C8
:100440002E2B28838FBFDF91CF9108958F929F929B
:10045000AF92BF92EF92FF920F931F93CF93DF93D0
:10046000CDB7DEB7A1970FB6F894DEBF0FBECDBFF4
:10047000162F042F19A2423008F40AE07E0121E26F
:10048000E20EF11C802E912CA12CB12C612FA50124
:1004900094010E94CA04029F1019112481E0E81AF5
:1004A000F1081A3014F4105D01C0195CF7011083D3
:1004B000122F732FCA01232B242B252B39F7E1147C
:1004C000F10469F001900020E9F73197AF014E196E
:1004D0005F09B70188EA91E00E94430102C080E011
:1004E00090E0A1960FB6F894DEBF0FBECDBFDF91AE
:1004F000CF911F910F91FF90EF90BF90AF909F9081
:100500008F900895CF92DF92EF92FF92CF93DF9377
:100510006C01990FEE08FF08F7FE17C08DE20E94EC
:100520008C00EC0166277727CB016C197D098E09B9
:100530009F094AE00E9426028C0F9D1FDF91CF91F8
:10054000FF90EF90DF90CF9008954AE0C701B60189
:10055000DF91CF91FF90EF90DF90CF900C94260227
:100560001F920F920FB60F9211242F933F938F93E8
:100570009F93EF93FF9320916001309161018091EF
:100580006201909163012817390731F48091C1000D
:100590008F7D8093C10014C0E0916201F0916301EE
:1005A000E05EFE4F2081809162019091630101968F
:1005B0008F73992790936301809362012093C60003
:1005C000FF91EF919F918F913F912F910F900FBECF
:1005D0000F901F9018951F920F920FB60F92112433
:1005E0002F934F935F938F939F93EF93FF938091FC
:1005F000C00082FD1CC02091C6008091A401909192
:10060000A50101968F7399274091A6015091A701EA
:100610008417950771F0E091A401F091A501EC59C0
:10062000FE4F20839093A5018093A40102C0809186
:10063000C600FF91EF919F918F915F914F912F9104
:100640000F900FBE0F901F9018951F920F920FB62C
:100650000F9211242F933F938F939F93AF93BF9348
:100660008091170190911801A0911901B0911A0180
:100670003091160123E0230F2D3720F40196A11DA0
:10068000B11D05C026E8230F0296A11DB11D2093C0
:1006900016018093170190931801A0931901B0934C
:1006A0001A018091120190911301A0911401B0914F
:1006B00015010196A11DB11D8093120190931301A4
:1006C000A0931401B0931501BF91AF919F918F91A9
:1006D0003F912F910F900FBE0F901F901895E8EA51
:1006E000F1E01382128288EE93E0A0E0B0E0848310
:1006F0009583A683B78385E091E09183808384E628
:1007000091E09587848780E291E09787868785ECE2
:1007100090E0918B808B84EC90E0938B828B80ECCB
:1007200090E0958B848B81EC90E0978B868B82ECAC
:1007300090E0918F808F86EC90E0938F828F84E0A1
:10074000848F83E0858F87E0868F85E0878F81E0C7
:1007500080A30895789484B5826084BD84B5816057
:1007600084BD85B5826085BD85B5816085BD80917C
:100770006E00816080936E001092810080918100F4
:1007800082608093810080918100816080938100EC
:10079000809180008160809380008091B1008460AE
:1007A0008093B1008091B00081608093B00080910F
:1007B0007A00846080937A0080917A0082608093CE
:1007C0007A0080917A00816080937A0080917A002B
:1007D000806880937A001092C10061E084E00E94FA
:1007E000EA0160E08FE00E94EA0160E080E10E949F
:1007F000EA01E091BC01F091BD0181E090E09C0133
:100800000090C80102C0220F331F0A94E2F7208330
:10081000E091B801F091B9011082E091BA01F09134
:10082000BB012FEC20831092C901E091BE01F09131
:10083000BF0140819C010090C40102C0220F331F00
:100840000A94E2F7242B2083E091BE01F091BF01CE
:1008500040819C010090C50102C0220F331F0A9401
:10086000E2F7242B2083E091BE01F091BF0140818B
:100870009C010090C60102C0220F331F0A94E2F7C8
:10088000242B2083E091BE01F091BF0120810090D4
:10089000C70102C0880F991F0A94E2F7809582234E
:1008A0008083C1E08FE00E94C101892BD9F0C09301
:1008B0001F012FB7F8948091170190911801A09112
:1008C0001901B0911A012FBF80931B0190931C0155
:1008D000A0931D01B0931E0181E090E00E9482026E
:1008E0000E94970080E10E94C101892B41F080E0C5
:1008F00090E00E9482020E94970010921F012FB781
:10090000F8948091170190911801A0911901B0916C
:100910001A012FBF40911B0150911C0160911D01D4
:1009200070911E01841B950BA60BB70B893B9B4056
:10093000A105B105E0F080910001882319F0109223
:10094000000102C0C09300012FB7F89480911701F5
:1009500090911801A0911901B0911A012FBF8093B5
:100960001B0190931C01A0931D01B0931E01809167
:100970000001882331F080911F01882311F081E06C
:1009800001C080E00E9494010E943E018BCFF89448
:100990000C94F204A1E21A2EAA1BBB1BFD010DC090
:1009A000AA1FBB1FEE1FFF1FA217B307E407F5071F
:1009B00020F0A21BB30BE40BF50B661F771F881FFB
:1009C000991F1A9469F760957095809590959B0191
:1009D000AC01BD01CF010895EE0FFF1F0590F4910A
:0809E000E02D0994F894FFCF0B
:1009E8000100000000A50043012E01F2001201E7FA
:0209F8000000FD
:00000001FF
